{
  "_format": "hh-sol-artifact-1",
  "contractName": "PurchaseOrder",
  "sourceName": "contracts/purchaseOrder.sol",
  "abi": [
    {
      "anonymous": false,
      "inputs": [
        {
          "indexed": false,
          "internalType": "uint256",
          "name": "purchaseId",
          "type": "uint256"
        },
        {
          "indexed": false,
          "internalType": "string",
          "name": "productId",
          "type": "string"
        },
        {
          "indexed": false,
          "internalType": "string",
          "name": "productName",
          "type": "string"
        },
        {
          "indexed": false,
          "internalType": "string",
          "name": "currency",
          "type": "string"
        },
        {
          "indexed": false,
          "internalType": "uint256",
          "name": "price",
          "type": "uint256"
        },
        {
          "indexed": false,
          "internalType": "address",
          "name": "buyer",
          "type": "address"
        },
        {
          "indexed": false,
          "internalType": "string",
          "name": "sellerName",
          "type": "string"
        },
        {
          "indexed": false,
          "internalType": "address",
          "name": "seller",
          "type": "address"
        },
        {
          "indexed": false,
          "internalType": "uint256",
          "name": "purchaseDate",
          "type": "uint256"
        }
      ],
      "name": "PurchaseCreated",
      "type": "event"
    },
    {
      "inputs": [
        {
          "internalType": "string",
          "name": "_productId",
          "type": "string"
        },
        {
          "internalType": "string",
          "name": "productName",
          "type": "string"
        },
        {
          "internalType": "string",
          "name": "currency",
          "type": "string"
        },
        {
          "internalType": "uint256",
          "name": "_price",
          "type": "uint256"
        },
        {
          "internalType": "address",
          "name": "_buyer",
          "type": "address"
        },
        {
          "internalType": "string",
          "name": "sellerName",
          "type": "string"
        }
      ],
      "name": "createPurchase",
      "outputs": [],
      "stateMutability": "nonpayable",
      "type": "function"
    },
    {
      "inputs": [],
      "name": "getPurchaseCount",
      "outputs": [
        {
          "internalType": "uint256",
          "name": "",
          "type": "uint256"
        }
      ],
      "stateMutability": "view",
      "type": "function"
    },
    {
      "inputs": [
        {
          "internalType": "address",
          "name": "_buyer",
          "type": "address"
        }
      ],
      "name": "getPurchasesByBuyer",
      "outputs": [
        {
          "components": [
            {
              "internalType": "string",
              "name": "productId",
              "type": "string"
            },
            {
              "internalType": "string",
              "name": "productName",
              "type": "string"
            },
            {
              "internalType": "string",
              "name": "currency",
              "type": "string"
            },
            {
              "internalType": "uint256",
              "name": "price",
              "type": "uint256"
            },
            {
              "internalType": "address",
              "name": "buyer",
              "type": "address"
            },
            {
              "internalType": "string",
              "name": "sellerName",
              "type": "string"
            },
            {
              "internalType": "address",
              "name": "seller",
              "type": "address"
            },
            {
              "internalType": "uint256",
              "name": "purchaseDate",
              "type": "uint256"
            }
          ],
          "internalType": "struct PurchaseOrder.Purchase[]",
          "name": "",
          "type": "tuple[]"
        }
      ],
      "stateMutability": "view",
      "type": "function"
    }
  ],
  "bytecode": "0x6080604052348015600f57600080fd5b506115b18061001f6000396000f3fe608060405234801561001057600080fd5b50600436106100415760003560e01c80635d870757146100465780637d690e0a14610062578063becd283f14610092575b600080fd5b610060600480360381019061005b9190610c17565b6100b0565b005b61007c60048036038101906100779190610d14565b6103fe565b6040516100899190610f65565b60405180910390f35b61009a610971565b6040516100a79190610f96565b60405180910390f35b600073ffffffffffffffffffffffffffffffffffffffff168273ffffffffffffffffffffffffffffffffffffffff160361011f576040517f08c379a00000000000000000000000000000000000000000000000000000000081526004016101169061100e565b60405180910390fd5b6000865111610163576040517f08c379a000000000000000000000000000000000000000000000000000000000815260040161015a9061107a565b60405180910390fd5b600083116101a6576040517f08c379a000000000000000000000000000000000000000000000000000000000815260040161019d906110e6565b60405180910390fd5b6000600160003373ffffffffffffffffffffffffffffffffffffffff1673ffffffffffffffffffffffffffffffffffffffff168152602001908152602001600020600081546101f490611135565b91905081905590506040518061010001604052808881526020018781526020018681526020018581526020018473ffffffffffffffffffffffffffffffffffffffff1681526020018381526020013373ffffffffffffffffffffffffffffffffffffffff168152602001428152506000803373ffffffffffffffffffffffffffffffffffffffff1673ffffffffffffffffffffffffffffffffffffffff168152602001908152602001600020600083815260200190815260200160002060008201518160000190816102c69190611389565b5060208201518160010190816102dc9190611389565b5060408201518160020190816102f29190611389565b506060820151816003015560808201518160040160006101000a81548173ffffffffffffffffffffffffffffffffffffffff021916908373ffffffffffffffffffffffffffffffffffffffff16021790555060a08201518160050190816103599190611389565b5060c08201518160060160006101000a81548173ffffffffffffffffffffffffffffffffffffffff021916908373ffffffffffffffffffffffffffffffffffffffff16021790555060e082015181600701559050507f4ddcb23e3378eef164397f22afa39558a4fbd481975094107a68ca57ca5962158188888888888833426040516103ed999897969594939291906114a3565b60405180910390a150505050505050565b6060600073ffffffffffffffffffffffffffffffffffffffff168273ffffffffffffffffffffffffffffffffffffffff160361046f576040517f08c379a00000000000000000000000000000000000000000000000000000000081526004016104669061100e565b60405180910390fd5b6000600160003373ffffffffffffffffffffffffffffffffffffffff1673ffffffffffffffffffffffffffffffffffffffff16815260200190815260200160002054905060008167ffffffffffffffff8111156104cf576104ce610a58565b5b60405190808252806020026020018201604052801561050857816020015b6104f56109b8565b8152602001906001900390816104ed5790505b509050600080600190505b838111610962578573ffffffffffffffffffffffffffffffffffffffff166000803373ffffffffffffffffffffffffffffffffffffffff1673ffffffffffffffffffffffffffffffffffffffff168152602001908152602001600020600083815260200190815260200160002060040160009054906101000a900473ffffffffffffffffffffffffffffffffffffffff1673ffffffffffffffffffffffffffffffffffffffff160361094f576000803373ffffffffffffffffffffffffffffffffffffffff1673ffffffffffffffffffffffffffffffffffffffff16815260200190815260200160002060008281526020019081526020016000206040518061010001604052908160008201805461062a906111ac565b80601f0160208091040260200160405190810160405280929190818152602001828054610656906111ac565b80156106a35780601f10610678576101008083540402835291602001916106a3565b820191906000526020600020905b81548152906001019060200180831161068657829003601f168201915b505050505081526020016001820180546106bc906111ac565b80601f01602080910402602001604051908101604052809291908181526020018280546106e8906111ac565b80156107355780601f1061070a57610100808354040283529160200191610735565b820191906000526020600020905b81548152906001019060200180831161071857829003601f168201915b5050505050815260200160028201805461074e906111ac565b80601f016020809104026020016040519081016040528092919081815260200182805461077a906111ac565b80156107c75780601f1061079c576101008083540402835291602001916107c7565b820191906000526020600020905b8154815290600101906020018083116107aa57829003601f168201915b50505050508152602001600382015481526020016004820160009054906101000a900473ffffffffffffffffffffffffffffffffffffffff1673ffffffffffffffffffffffffffffffffffffffff1673ffffffffffffffffffffffffffffffffffffffff168152602001600582018054610840906111ac565b80601f016020809104026020016040519081016040528092919081815260200182805461086c906111ac565b80156108b95780601f1061088e576101008083540402835291602001916108b9565b820191906000526020600020905b81548152906001019060200180831161089c57829003601f168201915b505050505081526020016006820160009054906101000a900473ffffffffffffffffffffffffffffffffffffffff1673ffffffffffffffffffffffffffffffffffffffff1673ffffffffffffffffffffffffffffffffffffffff1681526020016007820154815250508383815181106109355761093461154c565b5b6020026020010181905250818061094b90611135565b9250505b808061095a90611135565b915050610513565b50808252819350505050919050565b6000600160003373ffffffffffffffffffffffffffffffffffffffff1673ffffffffffffffffffffffffffffffffffffffff16815260200190815260200160002054905090565b60405180610100016040528060608152602001606081526020016060815260200160008152602001600073ffffffffffffffffffffffffffffffffffffffff16815260200160608152602001600073ffffffffffffffffffffffffffffffffffffffff168152602001600081525090565b6000604051905090565b600080fd5b600080fd5b600080fd5b600080fd5b6000601f19601f8301169050919050565b7f4e487b7100000000000000000000000000000000000000000000000000000000600052604160045260246000fd5b610a9082610a47565b810181811067ffffffffffffffff82111715610aaf57610aae610a58565b5b80604052505050565b6000610ac2610a29565b9050610ace8282610a87565b919050565b600067ffffffffffffffff821115610aee57610aed610a58565b5b610af782610a47565b9050602081019050919050565b82818337600083830152505050565b6000610b26610b2184610ad3565b610ab8565b905082815260208101848484011115610b4257610b41610a42565b5b610b4d848285610b04565b509392505050565b600082601f830112610b6a57610b69610a3d565b5b8135610b7a848260208601610b13565b91505092915050565b6000819050919050565b610b9681610b83565b8114610ba157600080fd5b50565b600081359050610bb381610b8d565b92915050565b600073ffffffffffffffffffffffffffffffffffffffff82169050919050565b6000610be482610bb9565b9050919050565b610bf481610bd9565b8114610bff57600080fd5b50565b600081359050610c1181610beb565b92915050565b60008060008060008060c08789031215610c3457610c33610a33565b5b600087013567ffffffffffffffff811115610c5257610c51610a38565b5b610c5e89828a01610b55565b965050602087013567ffffffffffffffff811115610c7f57610c7e610a38565b5b610c8b89828a01610b55565b955050604087013567ffffffffffffffff811115610cac57610cab610a38565b5b610cb889828a01610b55565b9450506060610cc989828a01610ba4565b9350506080610cda89828a01610c02565b92505060a087013567ffffffffffffffff811115610cfb57610cfa610a38565b5b610d0789828a01610b55565b9150509295509295509295565b600060208284031215610d2a57610d29610a33565b5b6000610d3884828501610c02565b91505092915050565b600081519050919050565b600082825260208201905092915050565b6000819050602082019050919050565b600081519050919050565b600082825260208201905092915050565b60005b83811015610da7578082015181840152602081019050610d8c565b60008484015250505050565b6000610dbe82610d6d565b610dc88185610d78565b9350610dd8818560208601610d89565b610de181610a47565b840191505092915050565b610df581610b83565b82525050565b610e0481610bd9565b82525050565b6000610100830160008301518482036000860152610e288282610db3565b91505060208301518482036020860152610e428282610db3565b91505060408301518482036040860152610e5c8282610db3565b9150506060830151610e716060860182610dec565b506080830151610e846080860182610dfb565b5060a083015184820360a0860152610e9c8282610db3565b91505060c0830151610eb160c0860182610dfb565b5060e0830151610ec460e0860182610dec565b508091505092915050565b6000610edb8383610e0a565b905092915050565b6000602082019050919050565b6000610efb82610d41565b610f058185610d4c565b935083602082028501610f1785610d5d565b8060005b85811015610f535784840389528151610f348582610ecf565b9450610f3f83610ee3565b925060208a01995050600181019050610f1b565b50829750879550505050505092915050565b60006020820190508181036000830152610f7f8184610ef0565b905092915050565b610f9081610b83565b82525050565b6000602082019050610fab6000830184610f87565b92915050565b600082825260208201905092915050565b7f496e76616c696420627579657220616464726573730000000000000000000000600082015250565b6000610ff8601583610fb1565b915061100382610fc2565b602082019050919050565b6000602082019050818103600083015261102781610feb565b9050919050565b7f50726f647563742049442063616e6e6f7420626520656d707479000000000000600082015250565b6000611064601a83610fb1565b915061106f8261102e565b602082019050919050565b6000602082019050818103600083015261109381611057565b9050919050565b7f5072696365206d7573742062652067726561746572207468616e207a65726f00600082015250565b60006110d0601f83610fb1565b91506110db8261109a565b602082019050919050565b600060208201905081810360008301526110ff816110c3565b9050919050565b7f4e487b7100000000000000000000000000000000000000000000000000000000600052601160045260246000fd5b600061114082610b83565b91507fffffffffffffffffffffffffffffffffffffffffffffffffffffffffffffffff820361117257611171611106565b5b600182019050919050565b7f4e487b7100000000000000000000000000000000000000000000000000000000600052602260045260246000fd5b600060028204905060018216806111c457607f821691505b6020821081036111d7576111d661117d565b5b50919050565b60008190508160005260206000209050919050565b60006020601f8301049050919050565b600082821b905092915050565b60006008830261123f7fffffffffffffffffffffffffffffffffffffffffffffffffffffffffffffffff82611202565b6112498683611202565b95508019841693508086168417925050509392505050565b6000819050919050565b600061128661128161127c84610b83565b611261565b610b83565b9050919050565b6000819050919050565b6112a08361126b565b6112b46112ac8261128d565b84845461120f565b825550505050565b600090565b6112c96112bc565b6112d4818484611297565b505050565b5b818110156112f8576112ed6000826112c1565b6001810190506112da565b5050565b601f82111561133d5761130e816111dd565b611317846111f2565b81016020851015611326578190505b61133a611332856111f2565b8301826112d9565b50505b505050565b600082821c905092915050565b600061136060001984600802611342565b1980831691505092915050565b6000611379838361134f565b9150826002028217905092915050565b61139282610d6d565b67ffffffffffffffff8111156113ab576113aa610a58565b5b6113b582546111ac565b6113c08282856112fc565b600060209050601f8311600181146113f357600084156113e1578287015190505b6113eb858261136d565b865550611453565b601f198416611401866111dd565b60005b8281101561142957848901518255600182019150602085019450602081019050611404565b868310156114465784890151611442601f89168261134f565b8355505b6001600288020188555050505b505050505050565b600061146682610d6d565b6114708185610fb1565b9350611480818560208601610d89565b61148981610a47565b840191505092915050565b61149d81610bd9565b82525050565b6000610120820190506114b9600083018c610f87565b81810360208301526114cb818b61145b565b905081810360408301526114df818a61145b565b905081810360608301526114f3818961145b565b90506115026080830188610f87565b61150f60a0830187611494565b81810360c0830152611521818661145b565b905061153060e0830185611494565b61153e610100830184610f87565b9a9950505050505050505050565b7f4e487b7100000000000000000000000000000000000000000000000000000000600052603260045260246000fdfea2646970667358221220c9ca89e56b6f24a924740b10a9388699b2933e07744178e45a56bb642a25138864736f6c634300081b0033",
  "linkReferences": {},
  "deployedLinkReferences": {}
}