{
  "_format": "hh-sol-artifact-1",
  "contractName": "PurchaseOrderWithWarrantyNFT",
  "sourceName": "contracts/purchaseOrderWithWarrantyNFT.sol",
  "abi": [
    {
      "inputs": [],
      "stateMutability": "nonpayable",
      "type": "constructor"
    },
    {
      "anonymous": false,
      "inputs": [
        {
          "indexed": true,
          "internalType": "address",
          "name": "owner",
          "type": "address"
        },
        {
          "indexed": true,
          "internalType": "address",
          "name": "approved",
          "type": "address"
        },
        {
          "indexed": true,
          "internalType": "uint256",
          "name": "tokenId",
          "type": "uint256"
        }
      ],
      "name": "Approval",
      "type": "event"
    },
    {
      "anonymous": false,
      "inputs": [
        {
          "indexed": true,
          "internalType": "address",
          "name": "owner",
          "type": "address"
        },
        {
          "indexed": true,
          "internalType": "address",
          "name": "operator",
          "type": "address"
        },
        {
          "indexed": false,
          "internalType": "bool",
          "name": "approved",
          "type": "bool"
        }
      ],
      "name": "ApprovalForAll",
      "type": "event"
    },
    {
      "anonymous": false,
      "inputs": [
        {
          "indexed": false,
          "internalType": "uint256",
          "name": "tokenId",
          "type": "uint256"
        },
        {
          "indexed": false,
          "internalType": "string",
          "name": "productId",
          "type": "string"
        },
        {
          "indexed": false,
          "internalType": "string",
          "name": "productName",
          "type": "string"
        },
        {
          "indexed": false,
          "internalType": "string",
          "name": "currency",
          "type": "string"
        },
        {
          "indexed": false,
          "internalType": "string",
          "name": "serialNumber",
          "type": "string"
        },
        {
          "indexed": false,
          "internalType": "uint256",
          "name": "price",
          "type": "uint256"
        },
        {
          "indexed": false,
          "internalType": "address",
          "name": "buyer",
          "type": "address"
        },
        {
          "indexed": false,
          "internalType": "string",
          "name": "sellerName",
          "type": "string"
        },
        {
          "indexed": false,
          "internalType": "address",
          "name": "seller",
          "type": "address"
        },
        {
          "indexed": false,
          "internalType": "uint256",
          "name": "purchaseDate",
          "type": "uint256"
        },
        {
          "indexed": false,
          "internalType": "string",
          "name": "expirationDate",
          "type": "string"
        }
      ],
      "name": "PurchaseCreated",
      "type": "event"
    },
    {
      "anonymous": false,
      "inputs": [
        {
          "indexed": true,
          "internalType": "address",
          "name": "from",
          "type": "address"
        },
        {
          "indexed": true,
          "internalType": "address",
          "name": "to",
          "type": "address"
        },
        {
          "indexed": true,
          "internalType": "uint256",
          "name": "tokenId",
          "type": "uint256"
        }
      ],
      "name": "Transfer",
      "type": "event"
    },
    {
      "inputs": [
        {
          "internalType": "address",
          "name": "to",
          "type": "address"
        },
        {
          "internalType": "uint256",
          "name": "tokenId",
          "type": "uint256"
        }
      ],
      "name": "approve",
      "outputs": [],
      "stateMutability": "nonpayable",
      "type": "function"
    },
    {
      "inputs": [
        {
          "internalType": "address",
          "name": "owner",
          "type": "address"
        }
      ],
      "name": "balanceOf",
      "outputs": [
        {
          "internalType": "uint256",
          "name": "",
          "type": "uint256"
        }
      ],
      "stateMutability": "view",
      "type": "function"
    },
    {
      "inputs": [
        {
          "internalType": "string",
          "name": "_productId",
          "type": "string"
        },
        {
          "internalType": "string",
          "name": "productName",
          "type": "string"
        },
        {
          "internalType": "string",
          "name": "currency",
          "type": "string"
        },
        {
          "internalType": "string",
          "name": "serialNumber",
          "type": "string"
        },
        {
          "internalType": "uint256",
          "name": "_price",
          "type": "uint256"
        },
        {
          "internalType": "address",
          "name": "_buyer",
          "type": "address"
        },
        {
          "internalType": "string",
          "name": "sellerName",
          "type": "string"
        },
        {
          "internalType": "string",
          "name": "expirationDate",
          "type": "string"
        }
      ],
      "name": "createPurchase",
      "outputs": [
        {
          "internalType": "uint256",
          "name": "",
          "type": "uint256"
        }
      ],
      "stateMutability": "nonpayable",
      "type": "function"
    },
    {
      "inputs": [
        {
          "internalType": "uint256",
          "name": "tokenId",
          "type": "uint256"
        }
      ],
      "name": "getApproved",
      "outputs": [
        {
          "internalType": "address",
          "name": "",
          "type": "address"
        }
      ],
      "stateMutability": "view",
      "type": "function"
    },
    {
      "inputs": [
        {
          "internalType": "uint256",
          "name": "tokenId",
          "type": "uint256"
        }
      ],
      "name": "getPurchaseByTokenId",
      "outputs": [
        {
          "components": [
            {
              "internalType": "string",
              "name": "productId",
              "type": "string"
            },
            {
              "internalType": "string",
              "name": "productName",
              "type": "string"
            },
            {
              "internalType": "string",
              "name": "currency",
              "type": "string"
            },
            {
              "internalType": "string",
              "name": "serialNumber",
              "type": "string"
            },
            {
              "internalType": "uint256",
              "name": "price",
              "type": "uint256"
            },
            {
              "internalType": "address",
              "name": "buyer",
              "type": "address"
            },
            {
              "internalType": "string",
              "name": "sellerName",
              "type": "string"
            },
            {
              "internalType": "address",
              "name": "seller",
              "type": "address"
            },
            {
              "internalType": "uint256",
              "name": "purchaseDate",
              "type": "uint256"
            },
            {
              "internalType": "string",
              "name": "expirationDate",
              "type": "string"
            }
          ],
          "internalType": "struct PurchaseOrderWithWarrantyNFT.Purchase",
          "name": "",
          "type": "tuple"
        }
      ],
      "stateMutability": "view",
      "type": "function"
    },
    {
      "inputs": [
        {
          "internalType": "address",
          "name": "owner",
          "type": "address"
        }
      ],
      "name": "getPurchasesByOwner",
      "outputs": [
        {
          "components": [
            {
              "internalType": "string",
              "name": "productId",
              "type": "string"
            },
            {
              "internalType": "string",
              "name": "productName",
              "type": "string"
            },
            {
              "internalType": "string",
              "name": "currency",
              "type": "string"
            },
            {
              "internalType": "string",
              "name": "serialNumber",
              "type": "string"
            },
            {
              "internalType": "uint256",
              "name": "price",
              "type": "uint256"
            },
            {
              "internalType": "address",
              "name": "buyer",
              "type": "address"
            },
            {
              "internalType": "string",
              "name": "sellerName",
              "type": "string"
            },
            {
              "internalType": "address",
              "name": "seller",
              "type": "address"
            },
            {
              "internalType": "uint256",
              "name": "purchaseDate",
              "type": "uint256"
            },
            {
              "internalType": "string",
              "name": "expirationDate",
              "type": "string"
            }
          ],
          "internalType": "struct PurchaseOrderWithWarrantyNFT.Purchase[]",
          "name": "",
          "type": "tuple[]"
        }
      ],
      "stateMutability": "view",
      "type": "function"
    },
    {
      "inputs": [
        {
          "internalType": "address",
          "name": "owner",
          "type": "address"
        },
        {
          "internalType": "address",
          "name": "operator",
          "type": "address"
        }
      ],
      "name": "isApprovedForAll",
      "outputs": [
        {
          "internalType": "bool",
          "name": "",
          "type": "bool"
        }
      ],
      "stateMutability": "view",
      "type": "function"
    },
    {
      "inputs": [],
      "name": "name",
      "outputs": [
        {
          "internalType": "string",
          "name": "",
          "type": "string"
        }
      ],
      "stateMutability": "view",
      "type": "function"
    },
    {
      "inputs": [
        {
          "internalType": "uint256",
          "name": "tokenId",
          "type": "uint256"
        }
      ],
      "name": "ownerOf",
      "outputs": [
        {
          "internalType": "address",
          "name": "",
          "type": "address"
        }
      ],
      "stateMutability": "view",
      "type": "function"
    },
    {
      "inputs": [
        {
          "internalType": "address",
          "name": "from",
          "type": "address"
        },
        {
          "internalType": "address",
          "name": "to",
          "type": "address"
        },
        {
          "internalType": "uint256",
          "name": "tokenId",
          "type": "uint256"
        }
      ],
      "name": "safeTransferFrom",
      "outputs": [],
      "stateMutability": "nonpayable",
      "type": "function"
    },
    {
      "inputs": [
        {
          "internalType": "address",
          "name": "from",
          "type": "address"
        },
        {
          "internalType": "address",
          "name": "to",
          "type": "address"
        },
        {
          "internalType": "uint256",
          "name": "tokenId",
          "type": "uint256"
        },
        {
          "internalType": "bytes",
          "name": "data",
          "type": "bytes"
        }
      ],
      "name": "safeTransferFrom",
      "outputs": [],
      "stateMutability": "nonpayable",
      "type": "function"
    },
    {
      "inputs": [
        {
          "internalType": "address",
          "name": "operator",
          "type": "address"
        },
        {
          "internalType": "bool",
          "name": "approved",
          "type": "bool"
        }
      ],
      "name": "setApprovalForAll",
      "outputs": [],
      "stateMutability": "nonpayable",
      "type": "function"
    },
    {
      "inputs": [
        {
          "internalType": "bytes4",
          "name": "interfaceId",
          "type": "bytes4"
        }
      ],
      "name": "supportsInterface",
      "outputs": [
        {
          "internalType": "bool",
          "name": "",
          "type": "bool"
        }
      ],
      "stateMutability": "view",
      "type": "function"
    },
    {
      "inputs": [],
      "name": "symbol",
      "outputs": [
        {
          "internalType": "string",
          "name": "",
          "type": "string"
        }
      ],
      "stateMutability": "view",
      "type": "function"
    },
    {
      "inputs": [
        {
          "internalType": "uint256",
          "name": "tokenId",
          "type": "uint256"
        }
      ],
      "name": "tokenURI",
      "outputs": [
        {
          "internalType": "string",
          "name": "",
          "type": "string"
        }
      ],
      "stateMutability": "view",
      "type": "function"
    },
    {
      "inputs": [
        {
          "internalType": "address",
          "name": "from",
          "type": "address"
        },
        {
          "internalType": "address",
          "name": "to",
          "type": "address"
        },
        {
          "internalType": "uint256",
          "name": "tokenId",
          "type": "uint256"
        }
      ],
      "name": "transferFrom",
      "outputs": [],
      "stateMutability": "nonpayable",
      "type": "function"
    }
  ],
  "bytecode": "0x608060405234801561001057600080fd5b506040518060400160405280601081526020017f50757263686173654f726465724e4654000000000000000000000000000000008152506040518060400160405280600581526020017f504f4e4654000000000000000000000000000000000000000000000000000000815250816000908161008c91906102f4565b50806001908161009c91906102f4565b5050506103c6565b600081519050919050565b7f4e487b7100000000000000000000000000000000000000000000000000000000600052604160045260246000fd5b7f4e487b7100000000000000000000000000000000000000000000000000000000600052602260045260246000fd5b6000600282049050600182168061012557607f821691505b602082108103610138576101376100de565b5b50919050565b60008190508160005260206000209050919050565b60006020601f8301049050919050565b600082821b905092915050565b6000600883026101a07fffffffffffffffffffffffffffffffffffffffffffffffffffffffffffffffff82610163565b6101aa8683610163565b95508019841693508086168417925050509392505050565b6000819050919050565b6000819050919050565b60006101f16101ec6101e7846101c2565b6101cc565b6101c2565b9050919050565b6000819050919050565b61020b836101d6565b61021f610217826101f8565b848454610170565b825550505050565b600090565b610234610227565b61023f818484610202565b505050565b5b818110156102635761025860008261022c565b600181019050610245565b5050565b601f8211156102a8576102798161013e565b61028284610153565b81016020851015610291578190505b6102a561029d85610153565b830182610244565b50505b505050565b600082821c905092915050565b60006102cb600019846008026102ad565b1980831691505092915050565b60006102e483836102ba565b9150826002028217905092915050565b6102fd826100a4565b67ffffffffffffffff811115610316576103156100af565b5b610320825461010d565b61032b828285610267565b600060209050601f83116001811461035e576000841561034c578287015190505b61035685826102d8565b8655506103be565b601f19841661036c8661013e565b60005b828110156103945784890151825560018201915060208501945060208101905061036f565b868310156103b157848901516103ad601f8916826102ba565b8355505b6001600288020188555050505b505050505050565b614051806103d56000396000f3fe608060405234801561001057600080fd5b50600436106101005760003560e01c806370a0823111610097578063c87b56dd11610066578063c87b56dd146102bd578063d64d129f146102ed578063e985e9c51461031d578063f79957671461034d57610100565b806370a082311461023757806395d89b4114610267578063a22cb46514610285578063b88d4fde146102a157610100565b806323b872dd116100d357806323b872dd1461019f578063288a5962146101bb57806342842e0e146101eb5780636352211e1461020757610100565b806301ffc9a71461010557806306fdde0314610135578063081812fc14610153578063095ea7b314610183575b600080fd5b61011f600480360381019061011a9190612769565b61037d565b60405161012c91906127b1565b60405180910390f35b61013d61045f565b60405161014a919061285c565b60405180910390f35b61016d600480360381019061016891906128b4565b6104f1565b60405161017a9190612922565b60405180910390f35b61019d60048036038101906101989190612969565b610537565b005b6101b960048036038101906101b491906129a9565b61064e565b005b6101d560048036038101906101d091906129fc565b6106ae565b6040516101e29190612c50565b60405180910390f35b610205600480360381019061020091906129a9565b610bff565b005b610221600480360381019061021c91906128b4565b610c1f565b60405161022e9190612922565b60405180910390f35b610251600480360381019061024c91906129fc565b610ca5565b60405161025e9190612c81565b60405180910390f35b61026f610d5c565b60405161027c919061285c565b60405180910390f35b61029f600480360381019061029a9190612cc8565b610dee565b005b6102bb60048036038101906102b69190612e3d565b610e04565b005b6102d760048036038101906102d291906128b4565b610e66565b6040516102e4919061285c565b60405180910390f35b610307600480360381019061030291906128b4565b610ece565b6040516103149190612fbd565b60405180910390f35b61033760048036038101906103329190612fdf565b611370565b60405161034491906127b1565b60405180910390f35b610367600480360381019061036291906130c0565b611404565b6040516103749190612c81565b60405180910390f35b60007f80ac58cd000000000000000000000000000000000000000000000000000000007bffffffffffffffffffffffffffffffffffffffffffffffffffffffff1916827bffffffffffffffffffffffffffffffffffffffffffffffffffffffff1916148061044857507f5b5e139f000000000000000000000000000000000000000000000000000000007bffffffffffffffffffffffffffffffffffffffffffffffffffffffff1916827bffffffffffffffffffffffffffffffffffffffffffffffffffffffff1916145b8061045857506104578261176c565b5b9050919050565b60606000805461046e9061324d565b80601f016020809104026020016040519081016040528092919081815260200182805461049a9061324d565b80156104e75780601f106104bc576101008083540402835291602001916104e7565b820191906000526020600020905b8154815290600101906020018083116104ca57829003601f168201915b5050505050905090565b60006104fc826117d6565b6004600083815260200190815260200160002060009054906101000a900473ffffffffffffffffffffffffffffffffffffffff169050919050565b600061054282610c1f565b90508073ffffffffffffffffffffffffffffffffffffffff168373ffffffffffffffffffffffffffffffffffffffff16036105b2576040517f08c379a00000000000000000000000000000000000000000000000000000000081526004016105a9906132f0565b60405180910390fd5b8073ffffffffffffffffffffffffffffffffffffffff166105d1611821565b73ffffffffffffffffffffffffffffffffffffffff16148061060057506105ff816105fa611821565b611370565b5b61063f576040517f08c379a000000000000000000000000000000000000000000000000000000000815260040161063690613382565b60405180910390fd5b6106498383611829565b505050565b61065f610659611821565b826118e2565b61069e576040517f08c379a000000000000000000000000000000000000000000000000000000000815260040161069590613414565b60405180910390fd5b6106a9838383611977565b505050565b606060006106bb83610ca5565b905060008167ffffffffffffffff8111156106d9576106d8612d12565b5b60405190808252806020026020018201604052801561071257816020015b6106ff61267e565b8152602001906001900390816106f75790505b509050600080600190505b6107276006611c70565b8111610bf3578573ffffffffffffffffffffffffffffffffffffffff1661074d82610c1f565b73ffffffffffffffffffffffffffffffffffffffff1603610be05760076000828152602001908152602001600020604051806101400160405290816000820180546107979061324d565b80601f01602080910402602001604051908101604052809291908181526020018280546107c39061324d565b80156108105780601f106107e557610100808354040283529160200191610810565b820191906000526020600020905b8154815290600101906020018083116107f357829003601f168201915b505050505081526020016001820180546108299061324d565b80601f01602080910402602001604051908101604052809291908181526020018280546108559061324d565b80156108a25780601f10610877576101008083540402835291602001916108a2565b820191906000526020600020905b81548152906001019060200180831161088557829003601f168201915b505050505081526020016002820180546108bb9061324d565b80601f01602080910402602001604051908101604052809291908181526020018280546108e79061324d565b80156109345780601f1061090957610100808354040283529160200191610934565b820191906000526020600020905b81548152906001019060200180831161091757829003601f168201915b5050505050815260200160038201805461094d9061324d565b80601f01602080910402602001604051908101604052809291908181526020018280546109799061324d565b80156109c65780601f1061099b576101008083540402835291602001916109c6565b820191906000526020600020905b8154815290600101906020018083116109a957829003601f168201915b50505050508152602001600482015481526020016005820160009054906101000a900473ffffffffffffffffffffffffffffffffffffffff1673ffffffffffffffffffffffffffffffffffffffff1673ffffffffffffffffffffffffffffffffffffffff168152602001600682018054610a3f9061324d565b80601f0160208091040260200160405190810160405280929190818152602001828054610a6b9061324d565b8015610ab85780601f10610a8d57610100808354040283529160200191610ab8565b820191906000526020600020905b815481529060010190602001808311610a9b57829003601f168201915b505050505081526020016007820160009054906101000a900473ffffffffffffffffffffffffffffffffffffffff1673ffffffffffffffffffffffffffffffffffffffff1673ffffffffffffffffffffffffffffffffffffffff16815260200160088201548152602001600982018054610b319061324d565b80601f0160208091040260200160405190810160405280929190818152602001828054610b5d9061324d565b8015610baa5780601f10610b7f57610100808354040283529160200191610baa565b820191906000526020600020905b815481529060010190602001808311610b8d57829003601f168201915b505050505081525050838381518110610bc657610bc5613434565b5b60200260200101819052508180610bdc90613492565b9250505b8080610beb90613492565b91505061071d565b50819350505050919050565b610c1a83838360405180602001604052806000815250610e04565b505050565b600080610c2b83611c7e565b9050600073ffffffffffffffffffffffffffffffffffffffff168173ffffffffffffffffffffffffffffffffffffffff1603610c9c576040517f08c379a0000000000000000000000000000000000000000000000000000000008152600401610c9390613526565b60405180910390fd5b80915050919050565b60008073ffffffffffffffffffffffffffffffffffffffff168273ffffffffffffffffffffffffffffffffffffffff1603610d15576040517f08c379a0000000000000000000000000000000000000000000000000000000008152600401610d0c906135b8565b60405180910390fd5b600360008373ffffffffffffffffffffffffffffffffffffffff1673ffffffffffffffffffffffffffffffffffffffff168152602001908152602001600020549050919050565b606060018054610d6b9061324d565b80601f0160208091040260200160405190810160405280929190818152602001828054610d979061324d565b8015610de45780601f10610db957610100808354040283529160200191610de4565b820191906000526020600020905b815481529060010190602001808311610dc757829003601f168201915b5050505050905090565b610e00610df9611821565b8383611cbb565b5050565b610e15610e0f611821565b836118e2565b610e54576040517f08c379a0000000000000000000000000000000000000000000000000000000008152600401610e4b90613414565b60405180910390fd5b610e6084848484611e27565b50505050565b6060610e71826117d6565b6000610e7b611e83565b90506000815111610e9b5760405180602001604052806000815250610ec6565b80610ea584611e9a565b604051602001610eb6929190613614565b6040516020818303038152906040525b915050919050565b610ed661267e565b610edf82611f68565b610f1e576040517f08c379a0000000000000000000000000000000000000000000000000000000008152600401610f1590613684565b60405180910390fd5b6007600083815260200190815260200160002060405180610140016040529081600082018054610f4d9061324d565b80601f0160208091040260200160405190810160405280929190818152602001828054610f799061324d565b8015610fc65780601f10610f9b57610100808354040283529160200191610fc6565b820191906000526020600020905b815481529060010190602001808311610fa957829003601f168201915b50505050508152602001600182018054610fdf9061324d565b80601f016020809104026020016040519081016040528092919081815260200182805461100b9061324d565b80156110585780601f1061102d57610100808354040283529160200191611058565b820191906000526020600020905b81548152906001019060200180831161103b57829003601f168201915b505050505081526020016002820180546110719061324d565b80601f016020809104026020016040519081016040528092919081815260200182805461109d9061324d565b80156110ea5780601f106110bf576101008083540402835291602001916110ea565b820191906000526020600020905b8154815290600101906020018083116110cd57829003601f168201915b505050505081526020016003820180546111039061324d565b80601f016020809104026020016040519081016040528092919081815260200182805461112f9061324d565b801561117c5780601f106111515761010080835404028352916020019161117c565b820191906000526020600020905b81548152906001019060200180831161115f57829003601f168201915b50505050508152602001600482015481526020016005820160009054906101000a900473ffffffffffffffffffffffffffffffffffffffff1673ffffffffffffffffffffffffffffffffffffffff1673ffffffffffffffffffffffffffffffffffffffff1681526020016006820180546111f59061324d565b80601f01602080910402602001604051908101604052809291908181526020018280546112219061324d565b801561126e5780601f106112435761010080835404028352916020019161126e565b820191906000526020600020905b81548152906001019060200180831161125157829003601f168201915b505050505081526020016007820160009054906101000a900473ffffffffffffffffffffffffffffffffffffffff1673ffffffffffffffffffffffffffffffffffffffff1673ffffffffffffffffffffffffffffffffffffffff168152602001600882015481526020016009820180546112e79061324d565b80601f01602080910402602001604051908101604052809291908181526020018280546113139061324d565b80156113605780601f1061133557610100808354040283529160200191611360565b820191906000526020600020905b81548152906001019060200180831161134357829003601f168201915b5050505050815250509050919050565b6000600560008473ffffffffffffffffffffffffffffffffffffffff1673ffffffffffffffffffffffffffffffffffffffff16815260200190815260200160002060008373ffffffffffffffffffffffffffffffffffffffff1673ffffffffffffffffffffffffffffffffffffffff16815260200190815260200160002060009054906101000a900460ff16905092915050565b60008073ffffffffffffffffffffffffffffffffffffffff168473ffffffffffffffffffffffffffffffffffffffff1603611474576040517f08c379a000000000000000000000000000000000000000000000000000000000815260040161146b906136f0565b60405180910390fd5b60008951116114b8576040517f08c379a00000000000000000000000000000000000000000000000000000000081526004016114af9061375c565b60405180910390fd5b60008651116114fc576040517f08c379a00000000000000000000000000000000000000000000000000000000081526004016114f3906137c8565b60405180910390fd5b6000851161153f576040517f08c379a000000000000000000000000000000000000000000000000000000000815260040161153690613834565b60405180910390fd5b6115496006611fa9565b60006115556006611c70565b90506115618582611fbf565b6040518061014001604052808b81526020018a81526020018981526020018881526020018781526020018673ffffffffffffffffffffffffffffffffffffffff1681526020018581526020013373ffffffffffffffffffffffffffffffffffffffff168152602001428152602001848152506007600083815260200190815260200160002060008201518160000190816115fb9190613a00565b5060208201518160010190816116119190613a00565b5060408201518160020190816116279190613a00565b50606082015181600301908161163d9190613a00565b506080820151816004015560a08201518160050160006101000a81548173ffffffffffffffffffffffffffffffffffffffff021916908373ffffffffffffffffffffffffffffffffffffffff16021790555060c08201518160060190816116a49190613a00565b5060e08201518160070160006101000a81548173ffffffffffffffffffffffffffffffffffffffff021916908373ffffffffffffffffffffffffffffffffffffffff160217905550610100820151816008015561012082015181600901908161170d9190613a00565b509050507f5c9515891fb3c696c8b146f6effe5f772f4f3d0f8ff0c81e0407b8c6de10c806818b8b8b8b8b8b8b33428d6040516117549b9a99989796959493929190613ad2565b60405180910390a18091505098975050505050505050565b60007f01ffc9a7000000000000000000000000000000000000000000000000000000007bffffffffffffffffffffffffffffffffffffffffffffffffffffffff1916827bffffffffffffffffffffffffffffffffffffffffffffffffffffffff1916149050919050565b6117df81611f68565b61181e576040517f08c379a000000000000000000000000000000000000000000000000000000000815260040161181590613526565b60405180910390fd5b50565b600033905090565b816004600083815260200190815260200160002060006101000a81548173ffffffffffffffffffffffffffffffffffffffff021916908373ffffffffffffffffffffffffffffffffffffffff160217905550808273ffffffffffffffffffffffffffffffffffffffff1661189c83610c1f565b73ffffffffffffffffffffffffffffffffffffffff167f8c5be1e5ebec7d5bd14f71427d1e84f3dd0314c0f7b2291e5b200ac8c7c3b92560405160405180910390a45050565b6000806118ee83610c1f565b90508073ffffffffffffffffffffffffffffffffffffffff168473ffffffffffffffffffffffffffffffffffffffff161480611930575061192f8185611370565b5b8061196e57508373ffffffffffffffffffffffffffffffffffffffff16611956846104f1565b73ffffffffffffffffffffffffffffffffffffffff16145b91505092915050565b8273ffffffffffffffffffffffffffffffffffffffff1661199782610c1f565b73ffffffffffffffffffffffffffffffffffffffff16146119ed576040517f08c379a00000000000000000000000000000000000000000000000000000000081526004016119e490613c19565b60405180910390fd5b600073ffffffffffffffffffffffffffffffffffffffff168273ffffffffffffffffffffffffffffffffffffffff1603611a5c576040517f08c379a0000000000000000000000000000000000000000000000000000000008152600401611a5390613cab565b60405180910390fd5b611a698383836001611fdd565b8273ffffffffffffffffffffffffffffffffffffffff16611a8982610c1f565b73ffffffffffffffffffffffffffffffffffffffff1614611adf576040517f08c379a0000000000000000000000000000000000000000000000000000000008152600401611ad690613c19565b60405180910390fd5b6004600082815260200190815260200160002060006101000a81549073ffffffffffffffffffffffffffffffffffffffff02191690556001600360008573ffffffffffffffffffffffffffffffffffffffff1673ffffffffffffffffffffffffffffffffffffffff168152602001908152602001600020600082825403925050819055506001600360008473ffffffffffffffffffffffffffffffffffffffff1673ffffffffffffffffffffffffffffffffffffffff16815260200190815260200160002060008282540192505081905550816002600083815260200190815260200160002060006101000a81548173ffffffffffffffffffffffffffffffffffffffff021916908373ffffffffffffffffffffffffffffffffffffffff160217905550808273ffffffffffffffffffffffffffffffffffffffff168473ffffffffffffffffffffffffffffffffffffffff167fddf252ad1be2c89b69c2b068fc378daa952ba7f163c4a11628f55a4df523b3ef60405160405180910390a4611c6b8383836001612103565b505050565b600081600001549050919050565b60006002600083815260200190815260200160002060009054906101000a900473ffffffffffffffffffffffffffffffffffffffff169050919050565b8173ffffffffffffffffffffffffffffffffffffffff168373ffffffffffffffffffffffffffffffffffffffff1603611d29576040517f08c379a0000000000000000000000000000000000000000000000000000000008152600401611d2090613d17565b60405180910390fd5b80600560008573ffffffffffffffffffffffffffffffffffffffff1673ffffffffffffffffffffffffffffffffffffffff16815260200190815260200160002060008473ffffffffffffffffffffffffffffffffffffffff1673ffffffffffffffffffffffffffffffffffffffff16815260200190815260200160002060006101000a81548160ff0219169083151502179055508173ffffffffffffffffffffffffffffffffffffffff168373ffffffffffffffffffffffffffffffffffffffff167f17307eab39ab6107e8899845ad3d59bd9653f200f220920489ca2b5937696c3183604051611e1a91906127b1565b60405180910390a3505050565b611e32848484611977565b611e3e84848484612109565b611e7d576040517f08c379a0000000000000000000000000000000000000000000000000000000008152600401611e7490613da9565b60405180910390fd5b50505050565b606060405180602001604052806000815250905090565b606060006001611ea984612290565b01905060008167ffffffffffffffff811115611ec857611ec7612d12565b5b6040519080825280601f01601f191660200182016040528015611efa5781602001600182028036833780820191505090505b509050600082602001820190505b600115611f5d578080600190039150507f3031323334353637383961626364656600000000000000000000000000000000600a86061a8153600a8581611f5157611f50613dc9565b5b04945060008503611f08575b819350505050919050565b60008073ffffffffffffffffffffffffffffffffffffffff16611f8a83611c7e565b73ffffffffffffffffffffffffffffffffffffffff1614159050919050565b6001816000016000828254019250508190555050565b611fd98282604051806020016040528060008152506123e3565b5050565b60018111156120fd57600073ffffffffffffffffffffffffffffffffffffffff168473ffffffffffffffffffffffffffffffffffffffff16146120715780600360008673ffffffffffffffffffffffffffffffffffffffff1673ffffffffffffffffffffffffffffffffffffffff16815260200190815260200160002060008282546120699190613df8565b925050819055505b600073ffffffffffffffffffffffffffffffffffffffff168373ffffffffffffffffffffffffffffffffffffffff16146120fc5780600360008573ffffffffffffffffffffffffffffffffffffffff1673ffffffffffffffffffffffffffffffffffffffff16815260200190815260200160002060008282546120f49190613e2c565b925050819055505b5b50505050565b50505050565b600061212a8473ffffffffffffffffffffffffffffffffffffffff1661243e565b15612283578373ffffffffffffffffffffffffffffffffffffffff1663150b7a02612153611821565b8786866040518563ffffffff1660e01b81526004016121759493929190613eb5565b6020604051808303816000875af19250505080156121b157506040513d601f19601f820116820180604052508101906121ae9190613f16565b60015b612233573d80600081146121e1576040519150601f19603f3d011682016040523d82523d6000602084013e6121e6565b606091505b50600081510361222b576040517f08c379a000000000000000000000000000000000000000000000000000000000815260040161222290613da9565b60405180910390fd5b805181602001fd5b63150b7a0260e01b7bffffffffffffffffffffffffffffffffffffffffffffffffffffffff1916817bffffffffffffffffffffffffffffffffffffffffffffffffffffffff191614915050612288565b600190505b949350505050565b600080600090507a184f03e93ff9f4daa797ed6e38ed64bf6a1f01000000000000000083106122ee577a184f03e93ff9f4daa797ed6e38ed64bf6a1f01000000000000000083816122e4576122e3613dc9565b5b0492506040810190505b6d04ee2d6d415b85acef8100000000831061232b576d04ee2d6d415b85acef8100000000838161232157612320613dc9565b5b0492506020810190505b662386f26fc10000831061235a57662386f26fc1000083816123505761234f613dc9565b5b0492506010810190505b6305f5e1008310612383576305f5e100838161237957612378613dc9565b5b0492506008810190505b61271083106123a857612710838161239e5761239d613dc9565b5b0492506004810190505b606483106123cb57606483816123c1576123c0613dc9565b5b0492506002810190505b600a83106123da576001810190505b80915050919050565b6123ed8383612461565b6123fa6000848484612109565b612439576040517f08c379a000000000000000000000000000000000000000000000000000000000815260040161243090613da9565b60405180910390fd5b505050565b6000808273ffffffffffffffffffffffffffffffffffffffff163b119050919050565b600073ffffffffffffffffffffffffffffffffffffffff168273ffffffffffffffffffffffffffffffffffffffff16036124d0576040517f08c379a00000000000000000000000000000000000000000000000000000000081526004016124c790613f8f565b60405180910390fd5b6124d981611f68565b15612519576040517f08c379a000000000000000000000000000000000000000000000000000000000815260040161251090613ffb565b60405180910390fd5b612527600083836001611fdd565b61253081611f68565b15612570576040517f08c379a000000000000000000000000000000000000000000000000000000000815260040161256790613ffb565b60405180910390fd5b6001600360008473ffffffffffffffffffffffffffffffffffffffff1673ffffffffffffffffffffffffffffffffffffffff16815260200190815260200160002060008282540192505081905550816002600083815260200190815260200160002060006101000a81548173ffffffffffffffffffffffffffffffffffffffff021916908373ffffffffffffffffffffffffffffffffffffffff160217905550808273ffffffffffffffffffffffffffffffffffffffff16600073ffffffffffffffffffffffffffffffffffffffff167fddf252ad1be2c89b69c2b068fc378daa952ba7f163c4a11628f55a4df523b3ef60405160405180910390a461267a600083836001612103565b5050565b6040518061014001604052806060815260200160608152602001606081526020016060815260200160008152602001600073ffffffffffffffffffffffffffffffffffffffff16815260200160608152602001600073ffffffffffffffffffffffffffffffffffffffff16815260200160008152602001606081525090565b6000604051905090565b600080fd5b600080fd5b60007fffffffff0000000000000000000000000000000000000000000000000000000082169050919050565b61274681612711565b811461275157600080fd5b50565b6000813590506127638161273d565b92915050565b60006020828403121561277f5761277e612707565b5b600061278d84828501612754565b91505092915050565b60008115159050919050565b6127ab81612796565b82525050565b60006020820190506127c660008301846127a2565b92915050565b600081519050919050565b600082825260208201905092915050565b60005b838110156128065780820151818401526020810190506127eb565b60008484015250505050565b6000601f19601f8301169050919050565b600061282e826127cc565b61283881856127d7565b93506128488185602086016127e8565b61285181612812565b840191505092915050565b600060208201905081810360008301526128768184612823565b905092915050565b6000819050919050565b6128918161287e565b811461289c57600080fd5b50565b6000813590506128ae81612888565b92915050565b6000602082840312156128ca576128c9612707565b5b60006128d88482850161289f565b91505092915050565b600073ffffffffffffffffffffffffffffffffffffffff82169050919050565b600061290c826128e1565b9050919050565b61291c81612901565b82525050565b60006020820190506129376000830184612913565b92915050565b61294681612901565b811461295157600080fd5b50565b6000813590506129638161293d565b92915050565b600080604083850312156129805761297f612707565b5b600061298e85828601612954565b925050602061299f8582860161289f565b9150509250929050565b6000806000606084860312156129c2576129c1612707565b5b60006129d086828701612954565b93505060206129e186828701612954565b92505060406129f28682870161289f565b9150509250925092565b600060208284031215612a1257612a11612707565b5b6000612a2084828501612954565b91505092915050565b600081519050919050565b600082825260208201905092915050565b6000819050602082019050919050565b600082825260208201905092915050565b6000612a71826127cc565b612a7b8185612a55565b9350612a8b8185602086016127e8565b612a9481612812565b840191505092915050565b612aa88161287e565b82525050565b612ab781612901565b82525050565b6000610140830160008301518482036000860152612adb8282612a66565b91505060208301518482036020860152612af58282612a66565b91505060408301518482036040860152612b0f8282612a66565b91505060608301518482036060860152612b298282612a66565b9150506080830151612b3e6080860182612a9f565b5060a0830151612b5160a0860182612aae565b5060c083015184820360c0860152612b698282612a66565b91505060e0830151612b7e60e0860182612aae565b50610100830151612b93610100860182612a9f565b50610120830151848203610120860152612bad8282612a66565b9150508091505092915050565b6000612bc68383612abd565b905092915050565b6000602082019050919050565b6000612be682612a29565b612bf08185612a34565b935083602082028501612c0285612a45565b8060005b85811015612c3e5784840389528151612c1f8582612bba565b9450612c2a83612bce565b925060208a01995050600181019050612c06565b50829750879550505050505092915050565b60006020820190508181036000830152612c6a8184612bdb565b905092915050565b612c7b8161287e565b82525050565b6000602082019050612c966000830184612c72565b92915050565b612ca581612796565b8114612cb057600080fd5b50565b600081359050612cc281612c9c565b92915050565b60008060408385031215612cdf57612cde612707565b5b6000612ced85828601612954565b9250506020612cfe85828601612cb3565b9150509250929050565b600080fd5b600080fd5b7f4e487b7100000000000000000000000000000000000000000000000000000000600052604160045260246000fd5b612d4a82612812565b810181811067ffffffffffffffff82111715612d6957612d68612d12565b5b80604052505050565b6000612d7c6126fd565b9050612d888282612d41565b919050565b600067ffffffffffffffff821115612da857612da7612d12565b5b612db182612812565b9050602081019050919050565b82818337600083830152505050565b6000612de0612ddb84612d8d565b612d72565b905082815260208101848484011115612dfc57612dfb612d0d565b5b612e07848285612dbe565b509392505050565b600082601f830112612e2457612e23612d08565b5b8135612e34848260208601612dcd565b91505092915050565b60008060008060808587031215612e5757612e56612707565b5b6000612e6587828801612954565b9450506020612e7687828801612954565b9350506040612e878782880161289f565b925050606085013567ffffffffffffffff811115612ea857612ea761270c565b5b612eb487828801612e0f565b91505092959194509250565b6000610140830160008301518482036000860152612ede8282612a66565b91505060208301518482036020860152612ef88282612a66565b91505060408301518482036040860152612f128282612a66565b91505060608301518482036060860152612f2c8282612a66565b9150506080830151612f416080860182612a9f565b5060a0830151612f5460a0860182612aae565b5060c083015184820360c0860152612f6c8282612a66565b91505060e0830151612f8160e0860182612aae565b50610100830151612f96610100860182612a9f565b50610120830151848203610120860152612fb08282612a66565b9150508091505092915050565b60006020820190508181036000830152612fd78184612ec0565b905092915050565b60008060408385031215612ff657612ff5612707565b5b600061300485828601612954565b925050602061301585828601612954565b9150509250929050565b600067ffffffffffffffff82111561303a57613039612d12565b5b61304382612812565b9050602081019050919050565b600061306361305e8461301f565b612d72565b90508281526020810184848401111561307f5761307e612d0d565b5b61308a848285612dbe565b509392505050565b600082601f8301126130a7576130a6612d08565b5b81356130b7848260208601613050565b91505092915050565b600080600080600080600080610100898b0312156130e1576130e0612707565b5b600089013567ffffffffffffffff8111156130ff576130fe61270c565b5b61310b8b828c01613092565b985050602089013567ffffffffffffffff81111561312c5761312b61270c565b5b6131388b828c01613092565b975050604089013567ffffffffffffffff8111156131595761315861270c565b5b6131658b828c01613092565b965050606089013567ffffffffffffffff8111156131865761318561270c565b5b6131928b828c01613092565b95505060806131a38b828c0161289f565b94505060a06131b48b828c01612954565b93505060c089013567ffffffffffffffff8111156131d5576131d461270c565b5b6131e18b828c01613092565b92505060e089013567ffffffffffffffff8111156132025761320161270c565b5b61320e8b828c01613092565b9150509295985092959890939650565b7f4e487b7100000000000000000000000000000000000000000000000000000000600052602260045260246000fd5b6000600282049050600182168061326557607f821691505b6020821081036132785761327761321e565b5b50919050565b7f4552433732313a20617070726f76616c20746f2063757272656e74206f776e6560008201527f7200000000000000000000000000000000000000000000000000000000000000602082015250565b60006132da6021836127d7565b91506132e58261327e565b604082019050919050565b60006020820190508181036000830152613309816132cd565b9050919050565b7f4552433732313a20617070726f76652063616c6c6572206973206e6f7420746f60008201527f6b656e206f776e6572206f7220617070726f76656420666f7220616c6c000000602082015250565b600061336c603d836127d7565b915061337782613310565b604082019050919050565b6000602082019050818103600083015261339b8161335f565b9050919050565b7f4552433732313a2063616c6c6572206973206e6f7420746f6b656e206f776e6560008201527f72206f7220617070726f76656400000000000000000000000000000000000000602082015250565b60006133fe602d836127d7565b9150613409826133a2565b604082019050919050565b6000602082019050818103600083015261342d816133f1565b9050919050565b7f4e487b7100000000000000000000000000000000000000000000000000000000600052603260045260246000fd5b7f4e487b7100000000000000000000000000000000000000000000000000000000600052601160045260246000fd5b600061349d8261287e565b91507fffffffffffffffffffffffffffffffffffffffffffffffffffffffffffffffff82036134cf576134ce613463565b5b600182019050919050565b7f4552433732313a20696e76616c696420746f6b656e2049440000000000000000600082015250565b60006135106018836127d7565b915061351b826134da565b602082019050919050565b6000602082019050818103600083015261353f81613503565b9050919050565b7f4552433732313a2061646472657373207a65726f206973206e6f74206120766160008201527f6c6964206f776e65720000000000000000000000000000000000000000000000602082015250565b60006135a26029836127d7565b91506135ad82613546565b604082019050919050565b600060208201905081810360008301526135d181613595565b9050919050565b600081905092915050565b60006135ee826127cc565b6135f881856135d8565b93506136088185602086016127e8565b80840191505092915050565b600061362082856135e3565b915061362c82846135e3565b91508190509392505050565b7f546f6b656e20646f6573206e6f74206578697374000000000000000000000000600082015250565b600061366e6014836127d7565b915061367982613638565b602082019050919050565b6000602082019050818103600083015261369d81613661565b9050919050565b7f496e76616c696420627579657220616464726573730000000000000000000000600082015250565b60006136da6015836127d7565b91506136e5826136a4565b602082019050919050565b60006020820190508181036000830152613709816136cd565b9050919050565b7f50726f647563742049442063616e6e6f7420626520656d707479000000000000600082015250565b6000613746601a836127d7565b915061375182613710565b602082019050919050565b6000602082019050818103600083015261377581613739565b9050919050565b7f53657269616c206e756d6265722063616e6e6f7420626520656d707479000000600082015250565b60006137b2601d836127d7565b91506137bd8261377c565b602082019050919050565b600060208201905081810360008301526137e1816137a5565b9050919050565b7f5072696365206d7573742062652067726561746572207468616e207a65726f00600082015250565b600061381e601f836127d7565b9150613829826137e8565b602082019050919050565b6000602082019050818103600083015261384d81613811565b9050919050565b60008190508160005260206000209050919050565b60006020601f8301049050919050565b600082821b905092915050565b6000600883026138b67fffffffffffffffffffffffffffffffffffffffffffffffffffffffffffffffff82613879565b6138c08683613879565b95508019841693508086168417925050509392505050565b6000819050919050565b60006138fd6138f86138f38461287e565b6138d8565b61287e565b9050919050565b6000819050919050565b613917836138e2565b61392b61392382613904565b848454613886565b825550505050565b600090565b613940613933565b61394b81848461390e565b505050565b5b8181101561396f57613964600082613938565b600181019050613951565b5050565b601f8211156139b45761398581613854565b61398e84613869565b8101602085101561399d578190505b6139b16139a985613869565b830182613950565b50505b505050565b600082821c905092915050565b60006139d7600019846008026139b9565b1980831691505092915050565b60006139f083836139c6565b9150826002028217905092915050565b613a09826127cc565b67ffffffffffffffff811115613a2257613a21612d12565b5b613a2c825461324d565b613a37828285613973565b600060209050601f831160018114613a6a5760008415613a58578287015190505b613a6285826139e4565b865550613aca565b601f198416613a7886613854565b60005b82811015613aa057848901518255600182019150602085019450602081019050613a7b565b86831015613abd5784890151613ab9601f8916826139c6565b8355505b6001600288020188555050505b505050505050565b600061016082019050613ae8600083018e612c72565b8181036020830152613afa818d612823565b90508181036040830152613b0e818c612823565b90508181036060830152613b22818b612823565b90508181036080830152613b36818a612823565b9050613b4560a0830189612c72565b613b5260c0830188612913565b81810360e0830152613b648187612823565b9050613b74610100830186612913565b613b82610120830185612c72565b818103610140830152613b958184612823565b90509c9b505050505050505050505050565b7f4552433732313a207472616e736665722066726f6d20696e636f72726563742060008201527f6f776e6572000000000000000000000000000000000000000000000000000000602082015250565b6000613c036025836127d7565b9150613c0e82613ba7565b604082019050919050565b60006020820190508181036000830152613c3281613bf6565b9050919050565b7f4552433732313a207472616e7366657220746f20746865207a65726f2061646460008201527f7265737300000000000000000000000000000000000000000000000000000000602082015250565b6000613c956024836127d7565b9150613ca082613c39565b604082019050919050565b60006020820190508181036000830152613cc481613c88565b9050919050565b7f4552433732313a20617070726f766520746f2063616c6c657200000000000000600082015250565b6000613d016019836127d7565b9150613d0c82613ccb565b602082019050919050565b60006020820190508181036000830152613d3081613cf4565b9050919050565b7f4552433732313a207472616e7366657220746f206e6f6e20455243373231526560008201527f63656976657220696d706c656d656e7465720000000000000000000000000000602082015250565b6000613d936032836127d7565b9150613d9e82613d37565b604082019050919050565b60006020820190508181036000830152613dc281613d86565b9050919050565b7f4e487b7100000000000000000000000000000000000000000000000000000000600052601260045260246000fd5b6000613e038261287e565b9150613e0e8361287e565b9250828203905081811115613e2657613e25613463565b5b92915050565b6000613e378261287e565b9150613e428361287e565b9250828201905080821115613e5a57613e59613463565b5b92915050565b600081519050919050565b600082825260208201905092915050565b6000613e8782613e60565b613e918185613e6b565b9350613ea18185602086016127e8565b613eaa81612812565b840191505092915050565b6000608082019050613eca6000830187612913565b613ed76020830186612913565b613ee46040830185612c72565b8181036060830152613ef68184613e7c565b905095945050505050565b600081519050613f108161273d565b92915050565b600060208284031215613f2c57613f2b612707565b5b6000613f3a84828501613f01565b91505092915050565b7f4552433732313a206d696e7420746f20746865207a65726f2061646472657373600082015250565b6000613f796020836127d7565b9150613f8482613f43565b602082019050919050565b60006020820190508181036000830152613fa881613f6c565b9050919050565b7f4552433732313a20746f6b656e20616c7265616479206d696e74656400000000600082015250565b6000613fe5601c836127d7565b9150613ff082613faf565b602082019050919050565b6000602082019050818103600083015261401481613fd8565b905091905056fea2646970667358221220dd00ed6842b5375d3f0b8aab7798a319fd1f6a8b61c1ea5e269635ef419d0cbe64736f6c634300081b0033",
  "linkReferences": {},
  "deployedLinkReferences": {}
}