{
  "_format": "hh-sol-artifact-1",
  "contractName": "PurchaseOrderWithWarranty",
  "sourceName": "contracts/purchaseOrderWithWarranty.sol",
  "abi": [
    {
      "anonymous": false,
      "inputs": [
        {
          "indexed": false,
          "internalType": "uint256",
          "name": "purchaseId",
          "type": "uint256"
        },
        {
          "indexed": false,
          "internalType": "string",
          "name": "productId",
          "type": "string"
        },
        {
          "indexed": false,
          "internalType": "string",
          "name": "productName",
          "type": "string"
        },
        {
          "indexed": false,
          "internalType": "string",
          "name": "currency",
          "type": "string"
        },
        {
          "indexed": false,
          "internalType": "string",
          "name": "serialNumber",
          "type": "string"
        },
        {
          "indexed": false,
          "internalType": "uint256",
          "name": "price",
          "type": "uint256"
        },
        {
          "indexed": false,
          "internalType": "address",
          "name": "buyer",
          "type": "address"
        },
        {
          "indexed": false,
          "internalType": "string",
          "name": "sellerName",
          "type": "string"
        },
        {
          "indexed": false,
          "internalType": "address",
          "name": "seller",
          "type": "address"
        },
        {
          "indexed": false,
          "internalType": "uint256",
          "name": "purchaseDate",
          "type": "uint256"
        },
        {
          "indexed": false,
          "internalType": "string",
          "name": "expirationDate",
          "type": "string"
        }
      ],
      "name": "PurchaseCreated",
      "type": "event"
    },
    {
      "inputs": [
        {
          "internalType": "string",
          "name": "_productId",
          "type": "string"
        },
        {
          "internalType": "string",
          "name": "productName",
          "type": "string"
        },
        {
          "internalType": "string",
          "name": "currency",
          "type": "string"
        },
        {
          "internalType": "string",
          "name": "serialNumber",
          "type": "string"
        },
        {
          "internalType": "uint256",
          "name": "_price",
          "type": "uint256"
        },
        {
          "internalType": "address",
          "name": "_buyer",
          "type": "address"
        },
        {
          "internalType": "string",
          "name": "sellerName",
          "type": "string"
        },
        {
          "internalType": "string",
          "name": "expirationDate",
          "type": "string"
        }
      ],
      "name": "createPurchase",
      "outputs": [],
      "stateMutability": "nonpayable",
      "type": "function"
    },
    {
      "inputs": [],
      "name": "getPurchaseCount",
      "outputs": [
        {
          "internalType": "uint256",
          "name": "",
          "type": "uint256"
        }
      ],
      "stateMutability": "view",
      "type": "function"
    },
    {
      "inputs": [
        {
          "internalType": "address",
          "name": "_buyer",
          "type": "address"
        }
      ],
      "name": "getPurchasesByBuyer",
      "outputs": [
        {
          "components": [
            {
              "internalType": "string",
              "name": "productId",
              "type": "string"
            },
            {
              "internalType": "string",
              "name": "productName",
              "type": "string"
            },
            {
              "internalType": "string",
              "name": "currency",
              "type": "string"
            },
            {
              "internalType": "string",
              "name": "serialNumber",
              "type": "string"
            },
            {
              "internalType": "uint256",
              "name": "price",
              "type": "uint256"
            },
            {
              "internalType": "address",
              "name": "buyer",
              "type": "address"
            },
            {
              "internalType": "string",
              "name": "sellerName",
              "type": "string"
            },
            {
              "internalType": "address",
              "name": "seller",
              "type": "address"
            },
            {
              "internalType": "uint256",
              "name": "purchaseDate",
              "type": "uint256"
            },
            {
              "internalType": "string",
              "name": "expirationDate",
              "type": "string"
            }
          ],
          "internalType": "struct PurchaseOrderWithWarranty.Purchase[]",
          "name": "",
          "type": "tuple[]"
        }
      ],
      "stateMutability": "view",
      "type": "function"
    }
  ],
  "bytecode": "0x6080604052348015600f57600080fd5b506118988061001f6000396000f3fe608060405234801561001057600080fd5b50600436106100415760003560e01c80637d690e0a14610046578063becd283f14610076578063f799576714610094575b600080fd5b610060600480360381019061005b9190610c51565b6100b0565b60405161006d9190610ef5565b60405180910390f35b61007e610747565b60405161008b9190610f26565b60405180910390f35b6100ae60048036038101906100a991906110a2565b61078e565b005b6060600073ffffffffffffffffffffffffffffffffffffffff168273ffffffffffffffffffffffffffffffffffffffff1603610121576040517f08c379a00000000000000000000000000000000000000000000000000000000081526004016101189061125d565b60405180910390fd5b6000600160003373ffffffffffffffffffffffffffffffffffffffff1673ffffffffffffffffffffffffffffffffffffffff16815260200190815260200160002054905060008167ffffffffffffffff81111561018157610180610f4b565b5b6040519080825280602002602001820160405280156101ba57816020015b6101a7610b60565b81526020019060019003908161019f5790505b509050600080600190505b838111610738578573ffffffffffffffffffffffffffffffffffffffff166000803373ffffffffffffffffffffffffffffffffffffffff1673ffffffffffffffffffffffffffffffffffffffff168152602001908152602001600020600083815260200190815260200160002060050160009054906101000a900473ffffffffffffffffffffffffffffffffffffffff1673ffffffffffffffffffffffffffffffffffffffff1603610725576000803373ffffffffffffffffffffffffffffffffffffffff1673ffffffffffffffffffffffffffffffffffffffff1681526020019081526020016000206000828152602001908152602001600020604051806101400160405290816000820180546102dc906112ac565b80601f0160208091040260200160405190810160405280929190818152602001828054610308906112ac565b80156103555780601f1061032a57610100808354040283529160200191610355565b820191906000526020600020905b81548152906001019060200180831161033857829003601f168201915b5050505050815260200160018201805461036e906112ac565b80601f016020809104026020016040519081016040528092919081815260200182805461039a906112ac565b80156103e75780601f106103bc576101008083540402835291602001916103e7565b820191906000526020600020905b8154815290600101906020018083116103ca57829003601f168201915b50505050508152602001600282018054610400906112ac565b80601f016020809104026020016040519081016040528092919081815260200182805461042c906112ac565b80156104795780601f1061044e57610100808354040283529160200191610479565b820191906000526020600020905b81548152906001019060200180831161045c57829003601f168201915b50505050508152602001600382018054610492906112ac565b80601f01602080910402602001604051908101604052809291908181526020018280546104be906112ac565b801561050b5780601f106104e05761010080835404028352916020019161050b565b820191906000526020600020905b8154815290600101906020018083116104ee57829003601f168201915b50505050508152602001600482015481526020016005820160009054906101000a900473ffffffffffffffffffffffffffffffffffffffff1673ffffffffffffffffffffffffffffffffffffffff1673ffffffffffffffffffffffffffffffffffffffff168152602001600682018054610584906112ac565b80601f01602080910402602001604051908101604052809291908181526020018280546105b0906112ac565b80156105fd5780601f106105d2576101008083540402835291602001916105fd565b820191906000526020600020905b8154815290600101906020018083116105e057829003601f168201915b505050505081526020016007820160009054906101000a900473ffffffffffffffffffffffffffffffffffffffff1673ffffffffffffffffffffffffffffffffffffffff1673ffffffffffffffffffffffffffffffffffffffff16815260200160088201548152602001600982018054610676906112ac565b80601f01602080910402602001604051908101604052809291908181526020018280546106a2906112ac565b80156106ef5780601f106106c4576101008083540402835291602001916106ef565b820191906000526020600020905b8154815290600101906020018083116106d257829003601f168201915b50505050508152505083838151811061070b5761070a6112dd565b5b602002602001018190525081806107219061133b565b9250505b80806107309061133b565b9150506101c5565b50808252819350505050919050565b6000600160003373ffffffffffffffffffffffffffffffffffffffff1673ffffffffffffffffffffffffffffffffffffffff16815260200190815260200160002054905090565b600073ffffffffffffffffffffffffffffffffffffffff168373ffffffffffffffffffffffffffffffffffffffff16036107fd576040517f08c379a00000000000000000000000000000000000000000000000000000000081526004016107f49061125d565b60405180910390fd5b6000885111610841576040517f08c379a0000000000000000000000000000000000000000000000000000000008152600401610838906113cf565b60405180910390fd5b6000855111610885576040517f08c379a000000000000000000000000000000000000000000000000000000000815260040161087c9061143b565b60405180910390fd5b600084116108c8576040517f08c379a00000000000000000000000000000000000000000000000000000000081526004016108bf906114a7565b60405180910390fd5b6000600160003373ffffffffffffffffffffffffffffffffffffffff1673ffffffffffffffffffffffffffffffffffffffff168152602001908152602001600020600081546109169061133b565b91905081905590506040518061014001604052808a81526020018981526020018881526020018781526020018681526020018573ffffffffffffffffffffffffffffffffffffffff1681526020018481526020013373ffffffffffffffffffffffffffffffffffffffff168152602001428152602001838152506000803373ffffffffffffffffffffffffffffffffffffffff1673ffffffffffffffffffffffffffffffffffffffff168152602001908152602001600020600083815260200190815260200160002060008201518160000190816109f49190611673565b506020820151816001019081610a0a9190611673565b506040820151816002019081610a209190611673565b506060820151816003019081610a369190611673565b506080820151816004015560a08201518160050160006101000a81548173ffffffffffffffffffffffffffffffffffffffff021916908373ffffffffffffffffffffffffffffffffffffffff16021790555060c0820151816006019081610a9d9190611673565b5060e08201518160070160006101000a81548173ffffffffffffffffffffffffffffffffffffffff021916908373ffffffffffffffffffffffffffffffffffffffff1602179055506101008201518160080155610120820151816009019081610b069190611673565b509050507f5c9515891fb3c696c8b146f6effe5f772f4f3d0f8ff0c81e0407b8c6de10c806818a8a8a8a8a8a8a33428c604051610b4d9b9a9998979695949392919061178d565b60405180910390a1505050505050505050565b6040518061014001604052806060815260200160608152602001606081526020016060815260200160008152602001600073ffffffffffffffffffffffffffffffffffffffff16815260200160608152602001600073ffffffffffffffffffffffffffffffffffffffff16815260200160008152602001606081525090565b6000604051905090565b600080fd5b600080fd5b600073ffffffffffffffffffffffffffffffffffffffff82169050919050565b6000610c1e82610bf3565b9050919050565b610c2e81610c13565b8114610c3957600080fd5b50565b600081359050610c4b81610c25565b92915050565b600060208284031215610c6757610c66610be9565b5b6000610c7584828501610c3c565b91505092915050565b600081519050919050565b600082825260208201905092915050565b6000819050602082019050919050565b600081519050919050565b600082825260208201905092915050565b60005b83811015610ce4578082015181840152602081019050610cc9565b60008484015250505050565b6000601f19601f8301169050919050565b6000610d0c82610caa565b610d168185610cb5565b9350610d26818560208601610cc6565b610d2f81610cf0565b840191505092915050565b6000819050919050565b610d4d81610d3a565b82525050565b610d5c81610c13565b82525050565b6000610140830160008301518482036000860152610d808282610d01565b91505060208301518482036020860152610d9a8282610d01565b91505060408301518482036040860152610db48282610d01565b91505060608301518482036060860152610dce8282610d01565b9150506080830151610de36080860182610d44565b5060a0830151610df660a0860182610d53565b5060c083015184820360c0860152610e0e8282610d01565b91505060e0830151610e2360e0860182610d53565b50610100830151610e38610100860182610d44565b50610120830151848203610120860152610e528282610d01565b9150508091505092915050565b6000610e6b8383610d62565b905092915050565b6000602082019050919050565b6000610e8b82610c7e565b610e958185610c89565b935083602082028501610ea785610c9a565b8060005b85811015610ee35784840389528151610ec48582610e5f565b9450610ecf83610e73565b925060208a01995050600181019050610eab565b50829750879550505050505092915050565b60006020820190508181036000830152610f0f8184610e80565b905092915050565b610f2081610d3a565b82525050565b6000602082019050610f3b6000830184610f17565b92915050565b600080fd5b600080fd5b7f4e487b7100000000000000000000000000000000000000000000000000000000600052604160045260246000fd5b610f8382610cf0565b810181811067ffffffffffffffff82111715610fa257610fa1610f4b565b5b80604052505050565b6000610fb5610bdf565b9050610fc18282610f7a565b919050565b600067ffffffffffffffff821115610fe157610fe0610f4b565b5b610fea82610cf0565b9050602081019050919050565b82818337600083830152505050565b600061101961101484610fc6565b610fab565b90508281526020810184848401111561103557611034610f46565b5b611040848285610ff7565b509392505050565b600082601f83011261105d5761105c610f41565b5b813561106d848260208601611006565b91505092915050565b61107f81610d3a565b811461108a57600080fd5b50565b60008135905061109c81611076565b92915050565b600080600080600080600080610100898b0312156110c3576110c2610be9565b5b600089013567ffffffffffffffff8111156110e1576110e0610bee565b5b6110ed8b828c01611048565b985050602089013567ffffffffffffffff81111561110e5761110d610bee565b5b61111a8b828c01611048565b975050604089013567ffffffffffffffff81111561113b5761113a610bee565b5b6111478b828c01611048565b965050606089013567ffffffffffffffff81111561116857611167610bee565b5b6111748b828c01611048565b95505060806111858b828c0161108d565b94505060a06111968b828c01610c3c565b93505060c089013567ffffffffffffffff8111156111b7576111b6610bee565b5b6111c38b828c01611048565b92505060e089013567ffffffffffffffff8111156111e4576111e3610bee565b5b6111f08b828c01611048565b9150509295985092959890939650565b600082825260208201905092915050565b7f496e76616c696420627579657220616464726573730000000000000000000000600082015250565b6000611247601583611200565b915061125282611211565b602082019050919050565b600060208201905081810360008301526112768161123a565b9050919050565b7f4e487b7100000000000000000000000000000000000000000000000000000000600052602260045260246000fd5b600060028204905060018216806112c457607f821691505b6020821081036112d7576112d661127d565b5b50919050565b7f4e487b7100000000000000000000000000000000000000000000000000000000600052603260045260246000fd5b7f4e487b7100000000000000000000000000000000000000000000000000000000600052601160045260246000fd5b600061134682610d3a565b91507fffffffffffffffffffffffffffffffffffffffffffffffffffffffffffffffff82036113785761137761130c565b5b600182019050919050565b7f50726f647563742049442063616e6e6f7420626520656d707479000000000000600082015250565b60006113b9601a83611200565b91506113c482611383565b602082019050919050565b600060208201905081810360008301526113e8816113ac565b9050919050565b7f53657269616c206e756d6265722063616e6e6f7420626520656d707479000000600082015250565b6000611425601d83611200565b9150611430826113ef565b602082019050919050565b6000602082019050818103600083015261145481611418565b9050919050565b7f5072696365206d7573742062652067726561746572207468616e207a65726f00600082015250565b6000611491601f83611200565b915061149c8261145b565b602082019050919050565b600060208201905081810360008301526114c081611484565b9050919050565b60008190508160005260206000209050919050565b60006020601f8301049050919050565b600082821b905092915050565b6000600883026115297fffffffffffffffffffffffffffffffffffffffffffffffffffffffffffffffff826114ec565b61153386836114ec565b95508019841693508086168417925050509392505050565b6000819050919050565b600061157061156b61156684610d3a565b61154b565b610d3a565b9050919050565b6000819050919050565b61158a83611555565b61159e61159682611577565b8484546114f9565b825550505050565b600090565b6115b36115a6565b6115be818484611581565b505050565b5b818110156115e2576115d76000826115ab565b6001810190506115c4565b5050565b601f821115611627576115f8816114c7565b611601846114dc565b81016020851015611610578190505b61162461161c856114dc565b8301826115c3565b50505b505050565b600082821c905092915050565b600061164a6000198460080261162c565b1980831691505092915050565b60006116638383611639565b9150826002028217905092915050565b61167c82610caa565b67ffffffffffffffff81111561169557611694610f4b565b5b61169f82546112ac565b6116aa8282856115e6565b600060209050601f8311600181146116dd57600084156116cb578287015190505b6116d58582611657565b86555061173d565b601f1984166116eb866114c7565b60005b82811015611713578489015182556001820191506020850194506020810190506116ee565b86831015611730578489015161172c601f891682611639565b8355505b6001600288020188555050505b505050505050565b600061175082610caa565b61175a8185611200565b935061176a818560208601610cc6565b61177381610cf0565b840191505092915050565b61178781610c13565b82525050565b6000610160820190506117a3600083018e610f17565b81810360208301526117b5818d611745565b905081810360408301526117c9818c611745565b905081810360608301526117dd818b611745565b905081810360808301526117f1818a611745565b905061180060a0830189610f17565b61180d60c083018861177e565b81810360e083015261181f8187611745565b905061182f61010083018661177e565b61183d610120830185610f17565b8181036101408301526118508184611745565b90509c9b50505050505050505050505056fea26469706673582212208afa3c8eb1345b484e511bff7ca2ea7cd30cc9866dd125a54b5681a740a8fd9364736f6c634300081b0033",
  "linkReferences": {},
  "deployedLinkReferences": {}
}